:020000040800F2
:10000000A8070020890100081B240008AB21000874
:10001000192400085D030008D12900080000000031
:10002000000000000000000000000000E1240008C3
:10003000190A0008000000001D240008E32400083D
:10004000A3010008A3010008A3010008A301000800
:10005000A3010008A3010008A3010008A3010008F0
:10006000A3010008A30100081B0A0008A30100085F
:10007000A3010008A3010008A3010008A3010008D0
:10008000A3010008A3010008A3010008A3010008C0
:10009000A3010008A3010008A3010008210A000829
:1000A000A3010008A3010008A3010008A3010008A0
:1000B000A3010008A3010008A3010008A301000890
:1000C000A3010008A3010008A3010008A301000880
:1000D000A3010008A3010008A3010008C529000826
:1000E000A3010008A3010008A301000800F002F822
:1000F00000F03AF80AA090E8000C82448344AAF188
:100100000107DA4501D100F02FF8AFF2090EBAE885
:100110000F0013F0010F18BFFB1A43F0010318473B
:10012000842F0000A42F0000103A24BF78C878C1A3
:10013000FAD8520724BF30C830C144BF04680C60ED
:10014000704700000023002400250026103A28BF35
:1001500078C1FBD8520728BF30C148BF0B60704739
:100160001FB51FBD10B510BD00F05CF81146FFF7BC
:10017000F7FF02F03FFC00F07AF803B4FFF7F2FF5C
:1001800003BC00F07FF80000094880470948004799
:10019000FEE7FEE7FEE7FEE7FEE7FEE7FEE7FEE737
:1001A000FEE7FEE704480549054A064B7047000094
:1001B0005D250008ED000008A8010020A807002028
:1001C000A8030020A80300204FF0000200B513464A
:1001D00094469646203922BFA0E80C50A0E80C5067
:1001E000B1F12001BFF4F7AF090728BFA0E80C5018
:1001F00048BF0CC05DF804EB890028BF40F8042B11
:1002000008BF704748BF20F8022B11F0804F18BF7D
:1002100000F8012B704770477047704700487047DF
:10022000480100207546FFF7F9FFAE460500694614
:10023000534620F00700854618B020B5FFF7B2FFFF
:10024000BDE820404FF000064FF000074FF00008D7
:100250004FF0000B21F00701AC46ACE8C009ACE858
:10026000C009ACE8C009ACE8C0098D46704710B5BC
:100270000446AFF300802046BDE81040FFF77DBF85
:100280007047000001491820ABBEFEE726000200BF
:1002900070B5044600688168C943C90716D18168F2
:1002A00021F00101816001F03BF8054609E001F011
:1002B00037F8401B022804D920688068C043C00773
:1002C00006D020688068C043C007F0D0002070BD11
:1002D000A06A40F01000A062E06A40F00100E06215
:1002E000012070BDF8B500260446009600688168BC
:1002F000C943C9072CD0816841F0010181601548CC
:1003000015490068B0FBF1F000E0401E00900028A5
:10031000FBD101F005F8054615E001F001F8401B9E
:10032000022810D920688068C043C0070BD0A06A9B
:1003300040F01000A062E06A40F00100E06284F842
:1003400024600120F8BD20688068C043C007E4D164
:100350000020F8BD8400002040420F00FEE70000AE
:100360000449096821B1081A002801DD01207047FD
:10037000002070473000002000B585B000200190BB
:1003800003900D48816941F00401816180696946EB
:1003900000F00400049030200090012002900748F3
:1003A00000F0CEFE064800F00DF805480C3000F0D5
:1003B00009F805B000BD000000100240000801402F
:1003C0003400002010B504460188074800F09EFF65
:1003D000A070E07000F0A4FF6060A07810B1002071
:1003E000207210BD0120FBE70008014070B50D46EA
:1003F000044601880E4800F089FFE178814202D06E
:10040000E07065600FE0A178814208D06168691AE8
:10041000782904D3A070012801D100202072A0788F
:1004200008B9207A08B1002070BD0120207270BD8B
:100430000008014070B50446B0F5FA6F09D30146D3
:100440001248FFF7D3FF20B1104904F5FA50091FF5
:1004500008600E4821460C30FFF7C8FF002813D073
:1004600000F042F8882000F075F900F0EDFA04463B
:1004700001F0F8FF054601F0D3FF22462946BDE80A
:100480007040002300F0E2B870BD0000340000208E
:1004900070B50446007810B101F0D6FF01E001F01C
:1004A000C5FF607810B101F0F1FF01E001F0E0FF5D
:1004B000A07810B100F0D3FA01E000F0CDFA01F01D
:1004C000AFFF084D687001F0CDFFA87001F0EEFF9E
:1004D000287000F0B9FAE870E07800B101202871C6
:1004E00070BD00001800002010B5034C01202071E1
:1004F00000F016FF606110BD000000202DE9F04102
:10050000294E044606F124057078012768B14FF0A2
:10051000000807280FD22C54401CC0B2707002286B
:1005200010D36978C02909D00AE0A52C01D12C701C
:100530007770BDE8F08186F80180FAE70728F8D3E4
:10054000072805D00328F4D32878A52808D027E069
:100550002878A52824D1C02902D1A8795A2803D007
:10056000A8785A280BD01BE000F0DAFE3061A81CF6
:10057000FFF78EFF86F8048086F80180D9E7687857
:10058000082801D909280BD100F0CAFE306168782B
:10059000092805D0317919B9F070B77000F032F838
:1005A00086F80180C1E700000000002010B50D4C66
:1005B000A06000206070A070E070C4F81E0004F11C
:1005C000180160840860087100F0AAFEE06000F085
:1005D000A7FE206100F02EF8BDE81040802000F05A
:1005E000B9B800000000002005490969401A47F227
:1005F0003051884201D80120704700207047000028
:100600000000002010B54FF47A74032806D2DFE80A
:1006100000F00209020001F05CFF05E001F052FF6A
:10062000002002E001F04EFF2046BDE8104000F03F
:100630001BBA000004488068002803D00122024948
:1006400001F052BD70470000000000202DE9FC4180
:100650001C4615460E46074600F062FEFFF7C4FF33
:1006600010B127B1012003E00320BDE8FC81002088
:10067000164F78700EB1012100E00021B97010B161
:1006800009B1012200E000223A700DB1012200E020
:100690000022FA700CB1012300E000233B71A52475
:1006A0008DF80040C0248DF801408DF802008DF8CF
:1006B00004208DF805305A208DF803108DF80600BF
:1006C0000721684600F004F8CFE70000180000207A
:1006D00030B404460648806838B134B129B10A46BE
:1006E000214630BC142301F00FBD30BC01207047FF
:1006F00000000020FEB517460C46054696B200F0F5
:100700000FFEFFF771FF00B31148092105804480F7
:100710008780A5208DF80000B0208DF801008DF8AD
:100720000250280A8DF803008DF80440200A8DF845
:1007300005008DF80660300A8DF807005A208DF804
:1007400008006846FFF7C4FFFEBD0320FEBD0000A1
:100750001E00002038B50446802804D000F0E0FDDB
:10076000FFF742FF60B1A5208DF800008DF8014031
:100770005A208DF8020003216846FFF7A9FF38BD13
:10078000032038BD10B504460C48017939B14169E0
:10079000621A41F288318A4201D300210171C16895
:1007A000611AB1F57A7F03D3C4608020FFF7D2FFCE
:1007B0002046BDE81040FFF717BF000000000020F2
:1007C000064910B58A68904206D10878FFF796FE70
:1007D000BDE81040FFF72EBF10BD00000000002054
:1007E00070B505460C48016841F0807101600B4C02
:1007F000206840F00100206000F092FF08B908482E
:1008000000686168074AB0FBF2F068436268521AF8
:100810008242FBD370BD0000FCED00E0001000E060
:100820008400002040420F00094810B5016841F0E3
:1008300080710160074800214160016841F00101B9
:10084000016000F0B3F8BDE81040012000F0DCB812
:10085000FCED00E0001000E02DE9F04F87B007004C
:100860002DD000F0A3F8002000F0CEF8122000F008
:1008700047FCEFF3108A72B6012000F0C5F814208F
:10088000FFF7AEFF0024444803940594816941F0CA
:1008900004018161806902A900F00400069004202F
:1008A0000290012004903D4800F04AFC4FF47A7514
:1008B0002946002000F096F8002868D103E00320C4
:1008C00007B0BDE8F08F2946012000F08BF8E8BBA7
:1008D0000026EB46A946A0460BEB0605002485F84A
:1008E00000804946002000F07DF878B94946012093
:1008F00000F078F850B92820FFF772FF00F050F8A8
:10090000012800D000208DF80800404650B9287812
:100910009DF80810641C41EA4000E4B22870082CDD
:10092000DFD3404690B9761CF6B2052ED4D39DF89D
:1009300000109DF801209DF802309DF803400A4404
:1009400023441A44D2B29DF8043000E01FE09342E1
:1009500001D002201BE039709DF8011079709DF8DC
:100960000210B9709DF80310F9709DF800109DF801
:10097000012001EB810102EB4101B9809DF80210D9
:100980009DF8032001EB810102EB4101F980BAF1EE
:10099000000F95D162B693E70010024000080140B5
:1009A0000421014800F0B2BC000801400B4800B52A
:1009B000816985B041F0040181618069694600F078
:1009C0000400049004200090012001900290032074
:1009D0000390034800F0B4FB05B000BD00100240D6
:1009E0000008014070B50C46054607E04FF00100D5
:1009F000002C08D0A4F10104FFF7F2FEFFF7D0FFAE
:100A0000A842F3D1002070BD02460421014800F045
:100A100082BC0000000801407047102000F084BB39
:100A2000202000F081BB72B6FEE7000004490020E0
:100A300008800449096808640C21024801F05AB989
:100A40002C000020B800002002480088002800D0B8
:100A5000012070472C000020002000F005B84FF462
:100A60007A7000F001B8000010B54FF47A73984224
:100A700000D918460849088008490A68D16A4C1C00
:100A8000984200D918464443B4FBF3F0884200D999
:100A90000846106410BD00002C000020B8000020A3
:100AA000F8B500260446009690F8240001280BD0E3
:100AB000012084F824002046FFF7EAFB2046FFF7D8
:100AC00011FC070002D050E00220F8BDA06A20F41B
:100AD000885040F00200A062022000F0BFFC2549CF
:100AE0000968B1FBF0F0400000E0401E00900028D3
:100AF000FBD12068816841F00801816000F010FCA2
:100B0000054608E000F00CFC401B0A2803D92068C9
:100B10008068000715D4206880680007F2D4206838
:100B2000816841F00401816000F0FAFB054612E0A3
:100B300000F0F6FB401B0A280DD9206880684007AA
:100B400009D5A06A20F0020040F01000A06284F8ED
:100B500024600120F8BD206880684007E8D4A06ABE
:100B600020F0020040F00100A06284F824603846C2
:100B7000F8BD000084000020F8B50023009390F831
:100B800024201C46012A12D0012280F824204A6821
:100B90001F26072A0DD205686F6B521E02EB8202D8
:100BA0009640B7430E68964037436F6319E00220C2
:100BB000F8BD05680D2A0AD22F6BD21F02EB820204
:100BC0009640B7430E68964037432F6309E0EF6ABB
:100BD0000D3A02EB82029640B7430E6896403743C7
:100BE000EF620A68072605680A2A0AD3EF680A3AFC
:100BF00002EB42029640B7438E6896403743EF605F
:100C000008E02F6902EB42029640B7438E68964097
:100C100037432F610A68102A01D0112A20D1124DC2
:100C20000268AA4217D195682D0219D4956845F437
:100C3000000595600968102912D10C490C4A096811
:100C4000B1FBF2F101EB8101490000E0491E009186
:100C50000029FBD104E0816A41F020018162012377
:100C600080F824401846F8BD00240140840000208C
:100C700040420F000068C06C704700002DE9F04151
:100C80004FF00006040035467DD0A06A002728B941
:100C9000E76284F82470204600F07EF82046FFF7D3
:100CA000F7FAA16AC90600D420B1A06A40F010008A
:100CB000A06268E0A16A21F4885141F00201A162BA
:100CC0006268E169237B0A4346EA43010A43A1685B
:100CD0004FF48076B14208D0012906D0002194F863
:100CE00014C0BCF1010F02D00AE03146F7E7F3B1BE
:100CF000A36A43F02003A362E36A43F00103E362C3
:100D00002368D3F804C02CF4694C4CEA010CC3F8F6
:100D100004C021688B68DFF874C003EA0C03134336
:100D20008B60A168B1420BD0012909D00CE0DFF83B
:100D300060C0A3690CEB43330B4343F40061DFE76E
:100D4000218A0D05A5F580152168CB6A23F470036F
:100D50002B43CB62216889680E4B1940914208D120
:100D6000E762A16A21F0020141F00101A162BDE840
:100D7000F081A06A20F0020040F01000A062E06A5A
:100D800040F00100E0620120F1E70000FDF7E1FF23
:100D900000E0FFFFFE0E1FFF00B585B000210091AF
:100DA00001910291039100680E49884218D10E48C2
:100DB000816941F400718161816901F400710491DC
:100DC000816941F0040181618069694600F0040095
:100DD00004900120009003200190044800F0B0F935
:100DE00005B000BD00240140001002400008014091
:100DF0002DE9F8434FF000080D460446CDF8008079
:100E000000F08EFA074620688168C90508D5A06AF7
:100E100040F02000A06284F824800120BDE8F8831F
:100E20004168C90503D4C06A10F4700F29D00220AC
:100E300000F014FB3A490968B1FBF0F6206801693B
:100E4000384A11424FEA62024FEAA2131ED1C1682A
:100E50004FEA621C11EA0C0F18D10169114224D12A
:100E6000C068184221D1142022E0681C09D025B1A5
:100E700000F056FAC01BA84203D92068006880071A
:100E800024D5206800688007EFD52CE00169114265
:100E900002D1C168194206D0026923490A4206D12B
:100EA000C068084203D1542002E0292000E0FC2061
:100EB0004643009815E0681C10D025B100F030FAC8
:100EC000C01BA8420AD90098B04207D2A06A40F0DD
:100ED0000400A06284F8248003209FE70098401C4F
:100EE0000090B042E7D321686FF012000860A06A5A
:100EF00040F40070A06220688068C0F34240072878
:100F00000CD1207B50B9A06A20F48070A062A06A46
:100F1000C00403D4A06A40F00100A06200207DE775
:100F200084000020244992244992240070B504468C
:100F300090F8240001280DD0012084F824002046D8
:100F4000FFF7D0F901004FF0000205D084F824200B
:100F5000084670BD022070BDA06A40F2012398438C
:100F600040F48070A0621F4D20681F4BA84218D12A
:100F70001E6816F4702F14D0A66A46F48016A66276
:100F80001E68760505D5A66A26F4005646F48056F6
:100F9000A662A66AF6040AD5E66A26F00606E662A6
:100FA00006E0A66A26F48016A6624668E9E7E262D1
:100FB00084F824206FF00202026020688268C2F385
:100FC0004242072A05D1A84208D11A6812F4702FAC
:100FD00004D0826842F480128260B9E7826842F4E9
:100FE000A002F9E7002801400424014010B504469E
:100FF00090F82400012807D0012084F8240020461E
:10100000FFF746F910B107E0022010BDA16A21F4F4
:10101000885141F00101A162002184F8241010BD23
:1010200010B590F821100022022905D00421816317
:1010300080F82020012010BD01680B6823F00E030A
:101040000B6001680B6823F001030B6090F84030DF
:10105000012404FA03F1C36B596080F8214080F841
:101060002020104610BD000010B590F8211000247B
:10107000022903D00421816301243DE001680A684C
:1010800022F00E020A6001680A6822F001020A607A
:101090001A4A0168914201D1012121E0174A143214
:1010A000914201D110211BE0144A2832914201D112
:1010B000891515E0114A3C32914201D189140FE0A3
:1010C0000E4A5032914202D14FF4803108E00B4A6F
:1010D0006432914202D14FF4801101E04FF08071EF
:1010E000064A083A5160012180F82110002180F859
:1010F0002010416B01B18847204610BD0800024016
:1011000070B5044600F00CF90546601C02D0044896
:101110000078044400F004F9401BA042FAD370BDEB
:101120007800002070470000044910B50A680242A8
:1011300002D00860FFF7F6FF10BD00001404014064
:101140002DE9F84FDFF8A4910024A9F1040B234600
:101150004FF00F0809F1040AABF1040EBEE00127BD
:10116000A7403A40BA4272D1DFF884C14D68A5EB7E
:101170000C0665452BD00DDC032D34D005DC35B3D2
:10118000012D19D0022D2FD11BE0112D16D0122DBB
:101190002AD119E0B6F5881F19D006DCB6F5803FD4
:1011A00015D0B6F5801F1FD111E0B6F5001F0ED087
:1011B000B6F5041F18D10AE0CB6815E0CB681B1DFB
:1011C00012E0CB6808330FE0CB680C330CE08B687F
:1011D0002BB1012B4FF0080303D0476104E0042337
:1011E00002E0076100E00023FF2A01D8064601E083
:1011F00000F104064FEA840501D9A5F120053768FE
:1012000008FA05FC27EA0C0703FA05F547EA050783
:1012100037604D68ED0060D5364DAE6946F0010689
:10122000AE61AD6924F0030605F001050095324D6D
:101230007719BE68A5072D0F08FA05FC26EA0C06EB
:10124000DFF8B8C0604503D14FF0000C17E044E070
:10125000DFF8ACC0604502D14FF0010C0FE0DFF8C1
:10126000A4C0604502D14FF0020C08E0DFF898C03E
:10127000604502D14FF0030C01E04FF0040C0CFA72
:1012800005FC4CEA060CC7F808C04D68D9F80060A8
:10129000ED024D4601D5164300E096432E604D68A1
:1012A000DAF80060AD02554601D5164300E09643DA
:1012B0002E604D68DBF80060AD035D4601D5164336
:1012C00000E096432E604D68DEF80060ED03754641
:1012D00001D5164300E096432E60641C0A6832FA7A
:1012E00004F57FF43CAFBDE8F88F0000080401402E
:1012F00000001110001002400000014000080140F1
:10130000000C0140001001400014014080680840BA
:1013100000D0012070470AB1016170470904FBE762
:10132000014880687047000078000020024881680A
:10133000027811448160704778000020074810B59A
:10134000016841F010010160032000F075F80F20E2
:1013500000F006F800F024F8002010BD0020024044
:1013600070B50D4D04464FF47A712878B1FBF0F05A
:101370000A490968B1FBF0F000F0AAFB48B9102C4B
:1013800007D200222146501E00F036F800206C6083
:1013900070BD012070BD0000780000208400002096
:1013A0000C4808B5816941F001018161816901F052
:1013B00001010091C16941F08051C161C0690649D4
:1013C00000F080500090486820F0E06040F000702D
:1013D000486008BD0010024000000140002809DB01
:1013E00000F01F02012191404009800000F1E0203F
:1013F000C0F8001170470000F0B40E4B1B68C3F337
:101400000223C3F10704042C00D904241D1D072D59
:1014100001D2002300E0DB1E012606FA04F56D1E52
:101420000D409D409E40761E164045EA0601F0BCE8
:1014300001F0CFBA0CED00E0064A00F00701106899
:101440004FF6FF03184040EA0120034908431060AB
:10145000704700000CED00E00000FA0510B50146F1
:101460000020234C012922D0022939D010291DD176
:1014700061682268D20119D51E48C1F38342C903AD
:10148000805C0AD561681B4AC1F34041921E515CE1
:10149000194AB2FBF1F1484301E018494843616839
:1014A000490203D440000321B0FBF1F010BD226AD1
:1014B000C2F30121012903D1920701D5C80310BD50
:1014C000022905D1626A920702D549F6404010BD53
:1014D0000329FCD121688903F9D54FF2244010BDBE
:1014E00000F034F96168C1F38131491C4900DBE740
:1014F000001002407A30000800127A0000093D0016
:101500002DE9F84304460078344FC00752D0F869FB
:101510000025C00008D4F86940F08050F861F869EF
:10152000012500F0805000902D480168C90511D4B4
:101530000168804641F480710160FFF7F1FE0646C4
:1015400004E0FFF7EDFE801B642822D8D8F80000E5
:10155000C005F6D5386A10F4407020D0A18801F497
:10156000407181421BD0386A1E49012220F440702C
:101570000A6000220A603862C00710D0FFF7D0FE70
:10158000064641F2883807E0FFF7CAFE811B414555
:1015900002D90320BDE8F883386A8007F4D5386A99
:1015A000616820F44070084338621DB1F86920F08A
:1015B0008050F8612078800705D57868A16820F40C
:1015C0004040084378602078C00605D57868E16817
:1015D00020F48000084378600020DBE70010024020
:1015E00000700040400442422DE9F0470D460400DF
:1015F00067D0DFF81881D8F8000000F00700A84293
:101600000CD2D8F8001021F007012943C8F80010C7
:10161000D8F8000000F00700A84252D120683C4EE4
:10162000810712D5400703D5706840F4E060706010
:101630002078000703D5706840F4605070607068CF
:10164000A16820F0F000084370602078C00727D020
:101650006068012810D03168022810D0890700295D
:101660002FDA716821F0030101437160FFF758FE22
:10167000074641F288390CE031688903EFE78901B8
:10168000EDE7FFF74DFEC11B494502D90320BDE838
:10169000F0877068616800F00C00B0EB810FF0D14A
:1016A000D8F80010404601F00701A9420BD90168A3
:1016B00021F0070129430160006800F00700A842FB
:1016C00001D00120E3E72078400705D57068E16884
:1016D00020F4E060084370602078000706D5706849
:1016E000216920F4605040EAC100706000F03EF8CB
:1016F0007168084AC1F30311515CC840064908608B
:1017000006480068FFF72CFE0020C0E700200240DA
:10171000001002408A300008840000207C00002075
:101720000148006870470000840000200448054913
:1017300000684968044AC1F30221515CC8407047FF
:1017400084000020001002409A3000080448054937
:1017500000684968044AC1F3C221515CC84070471F
:1017600084000020001002409A3000080E4B596897
:101770000E4801F00C02042A11D0082A0FD10C489F
:10178000C1F38342C903805C0AD55968084AC1F392
:101790004041921E515C054A5043B0FBF1F0704746
:1017A00004494843704700000010024000127A00CC
:1017B0006830000800093D002DE9F84F04006FD0A3
:1017C0002078BE4DC00747D06868C0F3810001286B
:1017D00007D06868C0F38100022809D16868C00397
:1017E00006D52868800337D560680028E7D033E045
:1017F0006068B0F5803F0BD010B1B0F5A02F11D0CC
:10180000286820F480302860286820F4802002E0D6
:10181000286840F480302860606888B1FFF780FD58
:10182000064609E0286840F480202860F0E7FFF7CA
:1018300077FD801B642873D828688003F7D50BE0F8
:10184000FFF76EFD064604E0FFF76AFD801B642883
:10185000F1D828688003F7D42078DFF86482800705
:101860004FF0010A4FF0000939D5686810F00C0FED
:1018700007D06868C0F38100022809D16868C003F6
:1018800006D42868800714D52069012808D110E003
:101890002069B0B1C8F800A0FFF742FD064605E098
:1018A00007E1FFF73DFD801B0228C4D828688007A8
:1018B000F7D52868616920F0F80040EAC100286087
:1018C0000DE0C8F80090FFF72BFD064604E0FFF797
:1018D00027FD801B022823D828688007F7D42078AA
:1018E00000072CD57748A169D9B1C0F800A0FFF74F
:1018F00017FD064604E0FFF713FD801B02280FD8F2
:10190000686A8007F7D570484FF4FA510068B0FB59
:10191000F1F0009000BF0098411E0091FAD20EE055
:101920007CE0C0F80090FFF7FBFC064604E0FFF700
:10193000F7FC801B022871D8686A8007F7D42078EA
:1019400040075BD5E8690027C00008D4E86940F08B
:101950008050E861E869012700F0805000905B4802
:101960000168C90511D40168834641F480710160A2
:10197000FFF7D6FC064604E0FFF7D2FC801B642884
:101980004CD8DBF80000C005F6D5E06801280AD085
:1019900008B1052813D0286A20F001002862286ABF
:1019A00020F0040002E0286A40F001002862E068AC
:1019B00041F2883B88B1FFF7B3FC064609E0286A8C
:1019C00040F004002862EEE7FFF7AAFC811B5945AE
:1019D0005BD8286A8007F7D50BE0FFF7A1FC064625
:1019E00004E0FFF79DFC811B59454ED8286A80070B
:1019F000F7D41FB1E86920F08050E861E069A8B32E
:101A00006968C1F38101022946D00228484606D000
:101A1000C8F86000FFF784FC044639E035E047462B
:101A2000C8F86000FFF77CFC064604E0FFF778FC8E
:101A3000801B022829D828688001F7D4206AB0F5D5
:101A4000803F05D16868A16820F4003008436860D1
:101A5000D4E908010843696821F4741108436860F7
:101A6000C7F860A0FFF75CFC044605E023E0FFF741
:101A700057FC001B022808D828688001F7D51AE017
:101A8000FFF74EFC001B022802D90320BDE8F88FA7
:101A900028688001F4D40EE00128F7D06868226A33
:101AA00000F48031914204D1616A00F470108842E0
:101AB00001D00120EAE70020E8E700000010024022
:101AC0000000424280044242840000200070004036
:101AD00010B5401EB0F1807F01D3012010BD4FF042
:101AE000E02460610F21601700F073FF0020A06107
:101AF00007202061002010BD70B590F83C20012A1D
:101B000026D0012580F83C50022280F83D20026852
:101B10005368946823F070060B68334353600D4B91
:101B200002689A4208D0B2F1804F05D00A4B9A421F
:101B300002D00A4B9A4204D1496824F08003194329
:101B4000916080F83D50002180F83C10084670BD3F
:101B5000022070BD002C014000040040000800403D
:101B600000B585B0002100910191029103910068B8
:101B7000B0F1804F11D10A48816941F004018161BF
:101B80008069694600F0040004900820009002205B
:101B9000019003900348FFF7D3FA05B000BD0000A1
:101BA000001002400008014070B5044690F83C0067
:101BB00000260D4601280FD0012084F83C006AB1B0
:101BC000042A1DD0082A2FD00C2A3FD0012600203D
:101BD00084F83C00304670BD022070BD206800F0E3
:101BE00009FD2068816941F00801816120688169EF
:101BF00021F004018161206881692A69114311E0A3
:101C0000206800F023FD2068816941F40061816152
:101C10002068816921F480618161206881692A6975
:101C200041EA02218161D2E7206800F03DFD206891
:101C3000C16941F00801C1612068C16921F0040156
:101C4000C1612068C1692A69114311E0206800F070
:101C500057FD2068C16941F40061C1612068C16914
:101C600021F48061C1612068C1692A6941EA0221C9
:101C7000C161ACE710B5040003D094F83D0010B189
:101C800007E0012010BD002084F83C00204600F051
:101C90001FF8022084F83D00211D206800F060FC40
:101CA000012084F8460084F83E0084F83F0084F860
:101CB000400084F8410084F8420084F8430084F82E
:101CC000440084F8450084F83D00002010BD000069
:101CD00008B50068B0F1804F08D10548C16941F0EE
:101CE0000101C161C06900F00100009008BD000061
:101CF0000010024010B5044649B104290AD0082951
:101D00000BD094F8410001280AD0012010BD94F8AE
:101D10003E00F8E794F83F00F5E794F84000F2E75A
:101D2000022041B3042929D008292AD084F841008F
:101D30000122206800F050FC13492068884203D13A
:101D4000426C42F4004242642068884208D0B0F1FC
:101D5000804F05D00D49884202D00D49884204D1F8
:101D6000816801F00701062903D0016841F00101F3
:101D70000160002010BD84F83E00D9E784F83F00E0
:101D8000D6E784F84000D3E7002C0140000400406F
:101D90000008004070477047F8B5016804460868BD
:101DA000CA684B6910F00F0F4FF0000559D003F0CF
:101DB000010602F49077374365D0C10705D0D105FD
:101DC00003D5616C41F001016164410705D5D90774
:101DD00003D0616C41F002016164810705D5D90728
:101DE00003D0616C41F004016164010707D502F082
:101DF0002001314303D0616C41F008016164616CE2
:101E000000293AD0800604D5900602D5204600F07D
:101E1000C8FC20684069616CC0F38010090700D4D9
:101E200060B3204600F096FC20684069400621D54A
:101E30002068143050E8001F21F0400140E80012F3
:101E4000002AF5D1E06BA8B16D494163E06BFFF763
:101E50000BF9002811D0E06B416B01B0BDE8F040F8
:101E6000084783060FD593060DD52046BDE8F840F8
:101E700000F097BC2046FFF78EFFF8BD2046FFF725
:101E80008AFF6564F8BD266B2023012E7CD1C6062F
:101E90007AD5D60678D508684868009048694FF02A
:101EA0000206400640D5E16B086840680004000C5B
:101EB000E8D0A28D8242E5D9E085886920282DD01E
:101EC00020680C3050E8001F21F4807140E80012B7
:101ED000002AF5D12068143050E8001F21F00101DC
:101EE00040E80012002AF5D12068143050E8001FA5
:101EF00021F0400140E80012002AF5D184F8423078
:101F0000256320680C3050E8001F21F0100140E8E4
:101F10000012002AF5D1E06BFFF782F86663A08D0E
:101F2000E18D401A81B22AE0A08DE18D401A81B284
:101F3000E08D0028A6D00029A4D020680C3050E8FD
:101F4000002F22F4907240E80027002FF5D120687E
:101F5000143050E8002F22F0010240E80027002F43
:101F6000F5D184F84230256320680C3050E8002F0A
:101F700022F0100240E80023002BF5D166632046D2
:101F8000FFF708FFF8BDFFE705062BD5150629D595
:101F900094F841002128F5D1A068B0F5805F01D107
:101FA0002069B0B1206A411C216221680078486034
:101FB000E08C401E0004000CE084E3D12068C1687E
:101FC00021F08001C1602068C16841F04001C1601A
:101FD000D8E7206A0088C0F308004860206A801CA7
:101FE0002062E5E74006CDD55006CBD5CA6820462D
:101FF00022F04002CA6084F8413000F0D5F8C1E711
:102000004527000870B5040004D094F8410000256D
:1020100010B106E0012070BD84F84050204600F069
:1020200023F8242084F841002068C16821F400517D
:10203000C160204600F016FC2068016921F490413F
:1020400001612068416921F02A0141612068C1686D
:1020500041F40051C1606564202084F8410084F897
:1020600042006563002070BD30B585B00024009447
:102070000194029403940068184988422CD11848AE
:10208000C16941F48021C161C16901F480210491D9
:10209000816941F0080181618069124D00F00800FA
:1020A00004904FF480600090022001900320039080
:1020B00069462846FFF744F8E814CDE9000469466C
:1020C00028460294FFF73CF8002211462720FFF72C
:1020D00093F92720FFF782F905B030BD0048004092
:1020E00000100240000C014090F84230202B01D03B
:1020F0000220704721B11AB10023036300F00EBC27
:1021000001207047FEF75CBB2DE9F843044690F8C8
:1021100041001F4615460E46202802D00220BDE889
:10212000F8838EB185B100206064212084F84100DD
:10213000FFF7F6F8A5848146E584A0684FF02008F3
:10214000B0F5805F02D003E00120E8E7206910B11C
:10215000354600260EE000250CE08021204600F0E8
:10216000F8FBA0B9BDB115F8010B21684860E08CFF
:10217000401EE084E08C4B464FF0000200970028A0
:10218000EBD14FF04001204600F0E3FB40B184F872
:1021900041800320C3E736F8020BC0F30800E4E7F0
:1021A00084F841800020BAE77047FEE710B500F0E0
:1021B00005FE044900F016FEBDE81040024900F09B
:1021C0001BBD00003333534000F07F4570B5002540
:1021D0002C460C48FEF7AAFE58B90A210948FEF71A
:1021E00007FE18B90748FEF745FD05440548FEF708
:1021F000FDFE641CE4B20A2CEBD30A20B5FBF0F020
:1022000080B270BD880000200148FEF749BC000084
:102210008800002010B5B0F5000F09DB07494FF02A
:102220007E54884208DA00F0E7FC10F1FF4F01D33A
:10223000002010BDA042FCDD204610BD0000404043
:1022400010B5FFF7E7FFB0F5000F01DA002010BD71
:10225000034900F0C7FDBDE81040024900F06ABC28
:10226000009017460000964310B5FFF7D3FFBDE876
:102270001040014900F0B6BD0000C8423EB5002440
:1022800010480094019402940D4984600160047325
:102290000475012505614FF460214460C161FEF7BA
:1022A000EDFC08B1FEF7BFFBCDE9004569460548E6
:1022B0000294FEF761FC002801D0FEF7B4FB3EBD9E
:1022C000002401408800002070B586B00024254815
:1022D0000094019402940394816941F0100181619A
:1022E000816901F010010491816941F0200181614F
:1022F000816901F020010491816941F0040181614B
:10230000816901F004010491816941F00801816152
:102310008069154E00F008000490002286213046A6
:10232000FEF7F9FF82200125CDE900050220CDE965
:10233000024069463046FEF703FF0420009011205A
:10234000CDE901050320039069463046FEF7F8FE0B
:102350003020CDE90004694630460294FEF7F0FED5
:1023600006B070BD001002400008014010B58AB0F0
:10237000002407941C2168460894FDF725FF1748A0
:102380004FF08041016040F2E731C0E901144FF69F
:10239000FF71C0E903148461FFF76CFC08B1FEF71C
:1023A00042FB079407A90D480894FFF7A5FB08B165
:1023B000FEF739FB602000904FF4FA70CDE901047C
:1023C0000C22694605480494FFF7EEFB08B1FEF7BE
:1023D0002AFB0248FFF7C4FB0AB010BDB80000207A
:1023E0000C4810B50A4901604FF4E1314160002109
:1023F00081600C22C160C0E904128161C161FFF7F4
:1024000001FE002803D0BDE81040FEF70CBB10BD54
:102410000048004000010020FEE7FEE77047000092
:1024200001480078704700002E00002010B50022FF
:1024300002210348FEF76FFF02490020087010BD1B
:10244000000801402E00002010B50122022103489F
:10245000FEF761FF02490120087010BD000801402D
:102460002E00002001484078704700002E00002018
:1024700010B5002280210348FEF74DFF02490020DD
:10248000487010BD000801402E00002010B5012248
:1024900080210348FEF73FFF02490120487010BD2C
:1024A000000801402E00002000F00CB8044801781C
:1024B00019B1407808B10120704700207047000032
:1024C0002E00002010B5FFF7B1FFBDE81040FFF768
:1024D000CFBF10B5FFF7B8FFBDE81040FFF7D6BF7C
:1024E0007047FEF723BF30B593B028216846FDF74B
:1024F0006BFE14210AA8FDF767FE002401210F944A
:1025000010940804CDE9001011941294029402254D
:102510000491CDE907504FF4E01009906846FFF7A9
:102520004BF908B172B6FEE70F20CDE90A054FF46A
:102530008060CDE90C4002210AA80E94FFF754F800
:1025400008B172B6FEE70FA80F951194FEF7D8FFF9
:10255000002801D072B6FEE713B030BD704700000E
:10256000F0B50268194C1A4D1A4E4FF08047A04240
:1025700005D0B84203D0A84201D0B04203D122F026
:1025800070034A681A43A04205D0B84203D0A8425B
:1025900001D0B04203D122F44073CA681A434B6998
:1025A00022F080021A4302608A68C2620A6882626C
:1025B000A04201D109690163012141610169C90793
:1025C00003D0016921F001010161F0BD002C01403F
:1025D000000400400008004010B501F01F01012375
:1025E000046A8B409C430462036A8A40134303627B
:1025F00010BD000030B5026A036A23F001030362D4
:102600004368846924F073050C682C4322F00205AA
:102610008A682A430C4DA84206D122F00805CA68F0
:1026200042EA050222F0040207D14D6923F4407307
:1026300045EA03058B6943EA050343608461496801
:102640004163026230BD0000002C014030B5036AD6
:10265000026A22F010020262426884690D6824F462
:10266000E64444EA05248D6823F0200343EA051379
:102670000C4DA84206D1CD6823F0800343EA051330
:1026800023F0400307D14D6922F4406242EA8502FB
:102690008D6942EA85024260846149688163036210
:1026A00030BD0000002C014030B5026A036A23F4FB
:1026B000807303624368C46922F4007224F07305D6
:1026C0000C682C438D6842EA05220C4DA84206D1C5
:1026D000CD6822F4006242EA052222F4806207D12A
:1026E0004D6923F4405343EA05138D6943EA05130A
:1026F0004360C4614968C163026230BD002C01407F
:1027000030B5046A026A22F4805202624268C369E8
:102710000D6823F4E64343EA05238D6824F400544E
:1027200044EA0534064DA84204D14D6922F48042A2
:1027300042EA85124260C36149680164046230BDA7
:10274000002C014010B5406A0021C185C184FFF70B
:1027500022FB10BD01680C3151E8002F22F4907269
:1027600041E80023002BF5D10168143151E8002F16
:1027700022F0010241E80023002BF5D1016B012971
:1027800009D101680C3151E8002F22F0100241E814
:102790000023002BF5D1202180F842100021016395
:1027A000704708B590F84210222901D0022008BDD8
:1027B00081684FF48053994201D1026922B1826A43
:1027C00099421BD049B10AE00268816A5268C2F39B
:1027D00008020A80816A891C08E0016971B10168F8
:1027E000496801F07F011170816A491C8162C18DC5
:1027F000491E0904090CC18503D01BE00168496822
:10280000F1E70168CA6822F02002CA600168CA685C
:1028100022F48072CA6001684A6922F001024A61AA
:10282000202180F8421000214163026B012A03D06D
:10283000FFF768FC002008BD016301680C3151E816
:10284000002F22F0100241E80023002BF5D101688F
:102850000A68D20602D50A6849680091818DFFF79F
:1028600099FAE7E770B5044600680169E26821F467
:10287000405111430161A16820690143606901432E
:102880002068C26841F20C639A430A43C260206820
:102890004169A26921F44071114341611E492068D8
:1028A000884202D1FEF752FF01E0FEF73FFF00EB46
:1028B000C00101EB0011606864228000B1FBF0F3FD
:1028C000B3FBF2F36FF018067343B1FBF0F5B1FB05
:1028D000F0F605EB8305322303EB0515B5FBF2F5A6
:1028E000B6FBF2F605F0F00505EB0615B1FBF0F6C8
:1028F000B1FBF0F0B0FBF2F06FF01801484306EBCB
:10290000800003EB0010B0FBF2F0216800F00F0034
:102910002844886070BD00000038014081628285D3
:10292000C28500214164222180F84210016921B151
:102930000168CA6842F48072CA6001684A6942F05C
:1029400001024A610068C16841F02001C1600020B5
:1029500070472DE9F8431F4690460D460446089EF1
:1029600023E0701C21D0FEF7DBFCC01BB0421AD85C
:10297000CEB12068C168490717D5802D15D0402DEC
:1029800013D00168C94309070FD4016800254068C6
:1029900000902046FFF7DEFE0820606484F8405077
:1029A0000120BDE8F8830320FBE72068006835EAD2
:1029B000000004D000204045D3D00020F1E70120E2
:1029C000F9E700000148FFF7E7B900000001002027
:1029D000FEE70907090E002804DB00F1E02080F87B
:1029E0000014704700F00F0000F1E02080F8141D83
:1029F00070470000FEF7A2FCFFF775FDFFF764FCCF
:102A0000FFF73CFCFFF7B2FCFFF7EAFCFFF7FCFB2B
:102A1000FDF70AFFFFF748FDFEF708F8FDF7ACFCED
:102A20004248FDF7C3FD47F230594FF4FA6A4FF4BC
:102A30007A783F4CFEF774FCFDF7FCFCFEF770FC67
:102A40000546FDF7D1FD4D4500D310B10020A07023
:102A500013E0206A281A404510D32562A078032885
:102A600004D2401CC0B2A070032807D3607828B9F4
:102A7000FFF728FDFDF7F0FF01206070FEF750FC26
:102A8000E169401A50450ED3FEF74AFCE061284840
:102A90002430FDF7E1FE207028B9254824308188D4
:102AA000E180C0882081FEF73BFCA169401A4045C7
:102AB00036D3FEF735FCA061FFF788FBA080FFF757
:102AC00075FBE060FFF7D0FB2061E068FFF7B8FB23
:102AD00005466061206900F051F986B2284600F091
:102AE0004DF985B2B4F90870FEF71AFCFDF738FC11
:102AF00020B178264FF4C8654FF42F773A4629461F
:102B00003046FDF7F7FDFDF79FFF0646FFF7AAFCED
:102B10000546FFF785FC002332462946FDF796FD62
:102B2000FEF7FEFBFDF72EFE84E70000000100200B
:102B30004C00002090EA010F48BF81F0004100F1F5
:102B40002482421A3CBF801A89184FEAD0524FF0B3
:102B50007F4C1CEA410FA2EBD15318BF9CEA026FD5
:102B600000F03B804FF0004C4CEA00204CEA012181
:102B700021FA03FC10EB0C0C1ED202F1FF325FEACB
:102B80001C2040EBC25038BF70471CF07F0F4FEA4B
:102B9000400C18BFBCF17F4F38BF7047C3F1200312
:102BA000994008BF20F00100BCF17F4F38BF70474B
:102BB000A0F1C04000F0DDB94FEA3C00000A40EB54
:102BC000C25028BF1CF0FF0F4FEA400CE6D018BFE0
:102BD000BCF17F4F38BF7047EAE79CEA026F05D02F
:102BE00010EA5C0F08BF00F00040704710B500F01D
:102BF0007AF900BF64FBBE3E4FF47F0C1CEAD01292
:102C00001EBF1CEAD11392EA0C0F93EA0C0F00F0DE
:102C1000858090EA010F48BF42F4807240F4000CB6
:102C200041F400002CF07F4120F07F4000B581424C
:102C3000A2EB03020FF2081CACEB504EC0F10000F7
:102C40009EF800E04FEA4E0E00FB0EFC38BF490034
:102C50004FEA2C1C02F5FA020CFB0EF34FEACE1ED3
:102C60004FEA112C4FEAC1210EEB635E42EB224288
:102C70000EFB0CFC4FEA1C5300FB03114FEA112C16
:102C80004FEA01310EFB0CFC4FEADC4C00FB0C114F
:102C9000C14228BF09184CEB03335DF804EB10EB7D
:102CA000410143EBC250B2F57C0F38BF704729D5C4
:102CB00012F0F00F1CBF00F1C04000F00040704760
:102CC000008182838485868788898B8C8D8E8F9105
:102CD0009293959697999A9C9D9FA0A2A3A5A7A829
:102CE000AAACAEB0B2B3B5B7B9BCBEC0C2C5C7C955
:102CF000CCCED1D4D7D9DCDFE2E6E9ECF0F3F7FAB9
:102D0000FE0000004FEA400C0CF1807CBCF17E4FCD
:102D100028BF7047B0F1C04000F02BB990EA010F16
:102D20000CEAD11348BF42F48072624538BF634554
:102D300007D213F47F0F16D080EA010000F00040A4
:102D4000704710B500F0CFF8097EFC3E00F005B8E2
:102D500080EA010000F00040704780EA010000F0C6
:102D6000004000F006B912F47F0F04BF024870471C
:102D700080EA010000F0FDB80000C07FC10DD1F174
:102D80009E0206DB4FEA002343F0004323FA02F0E1
:102D90007047004207D54FEA4001B1F1FE4F02D221
:102DA0004FF00000704710B500F09DF84992248064
:102DB000002070476FEA200070470000B0FA80F3EF
:102DC00010FA03F2C3F19D030AD0D90501EB1220DA
:102DD000530638BF704700F1010008BF20F0010022
:102DE000704700004FF47F0C1CEAD0121EBF1CEA93
:102DF000D11392EA0C0F93EA0C0F00F0478090EA8F
:102E0000010F48BF42F480724FF0004C4CEA0020A2
:102E10004CEA012102EB0302A0FB0113A2F5000220
:102E2000002918BF43F001035B0028BF4FEA3303BA
:102E300042EB22425FEA132C4CEBC2502EBFBCEB9C
:102E4000436FB2F57C0F70474FEA036CBCF1004F43
:102E500008BF20F00100B2F57C0F38BF70470BD5DA
:102E600082F0FF0212F5803FC8BF704700F1C040FA
:102E7000D8BF00F00040704700F5000C5FEA4C0C32
:102E800048BF7047B0F1C04000F073B890EA010F3E
:102E90000CEAD11348BF42F48072624538BF6345E3
:102EA00004D280EA010000F00040704710B500F045
:102EB0001AF800BF8900013E00F007B800F009B819
:102EC0005FEA410C5FEA1C6C08D080EA010000F068
:102ED00050B85FEA400C5FEA1C6CF6D14FF000403E
:102EE000A0F5800070470EF1020E2EF0030E5EF882
:102EF000044B244204D44FEA4102B2F17F4F11D86F
:102F00004FEA4003B3F17F4F0CD80ED14FEAD07C8B
:102F1000B2F17F4F0CEB4C0C0CF1020C08BF4CEBE8
:102F2000D17C04E04FF0080C01E04FEAD17C0CEBBF
:102F30004C0324FA03F404F00704B4F1040C06D2A1
:102F40000EEB840CBDE810404CF0010C6047DFE84C
:102F50000CF0070802024FF00040A0F5800010BD01
:102F60000846420018BFD2F1807288BF00F00040CE
:102F700010BDFF2141EAD050C005704790EA010F13
:102F800048BF81F000413FF5DCAD421A04D882F021
:102F90000042A0EB020011444FEAD0524FF07F4CA8
:102FA0001CEA410FA2EBD15318BF9CEA026F4AD032
:102FB0004FF0004C4CEA00204CEA012121FA03FCBE
:102FC000B0EB0C0C0FD412F0FE0F36D05FEA4C00C1
:102FD0001DD5001240EBC25038BF70471CF03F0FA8
:102FE00018BF70470BE0A2F101025FEA1C2040EB22
:102FF000C25038BF70471CF07F0F18BF7047C3F135
:103000002003994014BF401E20F001007047800843
:103010004FEA122308BF7047B0FA80FCA2EB0C0203
:10302000CCF1280C60FA0CF093EA122F04BF00EBED
:10303000C25070474FEAC3707047130A5FEADC1052
:1030400008BF7047F6E79CEA026F04D010EA5C0FF5
:1030500008BF0020704710B5FFF745FF40DFF63E80
:1030600081F00040704701020203040506070809C9
:103070000A0B0C0D0E0F10100102020304050607C7
:1030800008090A0B0C0D0E0F1010000000000000C4
:103090000000010203040607080900000000010205
:1030A00003040000C4300008000000208800000075
:1030B000280100084C31000888000020200700008B
:1030C00044010008000000000000000000000000B3
:1030D00000000000000000000000000000000000F0
:1030E00000000000000000000000000000000000E0
:1030F00000000000000000001000010100000000BE
:10310000000000002000010100000000000000009D
:1031100001000000000000000000000000000000AE
:10312000000000000000000000000000000000009F
:10313000000000000000000000000000010000008E
:0C314000100000000000000000127A00E7
:04000005080000ED02
:00000001FF
